{
  "contractName": "bid",
  "abi": [
    {
      "constant": true,
      "inputs": [
        {
          "internalType": "uint256",
          "name": "",
          "type": "uint256"
        }
      ],
      "name": "all_auction",
      "outputs": [
        {
          "internalType": "uint256",
          "name": "index",
          "type": "uint256"
        },
        {
          "internalType": "address payable",
          "name": "beneficiary",
          "type": "address"
        },
        {
          "internalType": "uint256",
          "name": "basebid",
          "type": "uint256"
        },
        {
          "internalType": "uint256",
          "name": "highestbid",
          "type": "uint256"
        },
        {
          "internalType": "address payable",
          "name": "highest_bidder",
          "type": "address"
        },
        {
          "internalType": "bool",
          "name": "end_or_not",
          "type": "bool"
        },
        {
          "internalType": "uint256",
          "name": "endtime",
          "type": "uint256"
        },
        {
          "internalType": "uint256",
          "name": "index_of_nft",
          "type": "uint256"
        },
        {
          "internalType": "string",
          "name": "nft_name",
          "type": "string"
        },
        {
          "internalType": "string",
          "name": "nft_hash",
          "type": "string"
        }
      ],
      "payable": false,
      "stateMutability": "view",
      "type": "function"
    },
    {
      "constant": true,
      "inputs": [
        {
          "internalType": "uint256",
          "name": "",
          "type": "uint256"
        }
      ],
      "name": "all_nft",
      "outputs": [
        {
          "internalType": "uint256",
          "name": "index",
          "type": "uint256"
        },
        {
          "internalType": "address",
          "name": "owner",
          "type": "address"
        },
        {
          "internalType": "bool",
          "name": "under_auction_or_not",
          "type": "bool"
        },
        {
          "internalType": "bool",
          "name": "own_or_buy",
          "type": "bool"
        },
        {
          "internalType": "string",
          "name": "nft_name",
          "type": "string"
        },
        {
          "internalType": "string",
          "name": "nft_hash",
          "type": "string"
        }
      ],
      "payable": false,
      "stateMutability": "view",
      "type": "function"
    },
    {
      "constant": true,
      "inputs": [],
      "name": "auction_num",
      "outputs": [
        {
          "internalType": "uint256",
          "name": "",
          "type": "uint256"
        }
      ],
      "payable": false,
      "stateMutability": "view",
      "type": "function"
    },
    {
      "constant": true,
      "inputs": [
        {
          "internalType": "address",
          "name": "",
          "type": "address"
        }
      ],
      "name": "evolve_num",
      "outputs": [
        {
          "internalType": "uint256",
          "name": "",
          "type": "uint256"
        }
      ],
      "payable": false,
      "stateMutability": "view",
      "type": "function"
    },
    {
      "constant": true,
      "inputs": [
        {
          "internalType": "address",
          "name": "",
          "type": "address"
        },
        {
          "internalType": "uint256",
          "name": "",
          "type": "uint256"
        }
      ],
      "name": "my_evolve",
      "outputs": [
        {
          "internalType": "uint256",
          "name": "index",
          "type": "uint256"
        },
        {
          "internalType": "address payable",
          "name": "beneficiary",
          "type": "address"
        },
        {
          "internalType": "uint256",
          "name": "basebid",
          "type": "uint256"
        },
        {
          "internalType": "uint256",
          "name": "highestbid",
          "type": "uint256"
        },
        {
          "internalType": "address payable",
          "name": "highest_bidder",
          "type": "address"
        },
        {
          "internalType": "bool",
          "name": "end_or_not",
          "type": "bool"
        },
        {
          "internalType": "uint256",
          "name": "endtime",
          "type": "uint256"
        },
        {
          "internalType": "uint256",
          "name": "index_of_nft",
          "type": "uint256"
        },
        {
          "internalType": "string",
          "name": "nft_name",
          "type": "string"
        },
        {
          "internalType": "string",
          "name": "nft_hash",
          "type": "string"
        }
      ],
      "payable": false,
      "stateMutability": "view",
      "type": "function"
    },
    {
      "constant": true,
      "inputs": [],
      "name": "nft_num",
      "outputs": [
        {
          "internalType": "uint256",
          "name": "",
          "type": "uint256"
        }
      ],
      "payable": false,
      "stateMutability": "view",
      "type": "function"
    },
    {
      "constant": true,
      "inputs": [
        {
          "internalType": "uint256",
          "name": "",
          "type": "uint256"
        }
      ],
      "name": "num_of_belongers",
      "outputs": [
        {
          "internalType": "uint256",
          "name": "",
          "type": "uint256"
        }
      ],
      "payable": false,
      "stateMutability": "view",
      "type": "function"
    },
    {
      "constant": true,
      "inputs": [
        {
          "internalType": "uint256",
          "name": "",
          "type": "uint256"
        },
        {
          "internalType": "uint256",
          "name": "",
          "type": "uint256"
        }
      ],
      "name": "past_belongers",
      "outputs": [
        {
          "internalType": "address",
          "name": "",
          "type": "address"
        }
      ],
      "payable": false,
      "stateMutability": "view",
      "type": "function"
    },
    {
      "constant": false,
      "inputs": [
        {
          "internalType": "address",
          "name": "_owner",
          "type": "address"
        },
        {
          "internalType": "string",
          "name": "_nft_hash",
          "type": "string"
        },
        {
          "internalType": "string",
          "name": "_nft_name",
          "type": "string"
        }
      ],
      "name": "addnewnft",
      "outputs": [],
      "payable": false,
      "stateMutability": "nonpayable",
      "type": "function"
    },
    {
      "constant": false,
      "inputs": [
        {
          "internalType": "uint256",
          "name": "_basebid",
          "type": "uint256"
        },
        {
          "internalType": "uint256",
          "name": "ddl",
          "type": "uint256"
        },
        {
          "internalType": "uint256",
          "name": "_index_of_nft",
          "type": "uint256"
        }
      ],
      "name": "addnewauction",
      "outputs": [
        {
          "internalType": "uint256",
          "name": "",
          "type": "uint256"
        }
      ],
      "payable": false,
      "stateMutability": "nonpayable",
      "type": "function"
    },
    {
      "constant": false,
      "inputs": [
        {
          "internalType": "uint256",
          "name": "_index_of_auction",
          "type": "uint256"
        },
        {
          "internalType": "uint256",
          "name": "_new_price",
          "type": "uint256"
        }
      ],
      "name": "addnewbid",
      "outputs": [],
      "payable": false,
      "stateMutability": "nonpayable",
      "type": "function"
    },
    {
      "constant": true,
      "inputs": [
        {
          "internalType": "uint256",
          "name": "_index_of_auction",
          "type": "uint256"
        }
      ],
      "name": "finish_auction",
      "outputs": [],
      "payable": false,
      "stateMutability": "view",
      "type": "function"
    },
    {
      "constant": false,
      "inputs": [
        {
          "internalType": "uint256",
          "name": "_index_of_auction",
          "type": "uint256"
        }
      ],
      "name": "pay_for_auction",
      "outputs": [],
      "payable": true,
      "stateMutability": "payable",
      "type": "function"
    },
    {
      "constant": false,
      "inputs": [
        {
          "internalType": "uint256",
          "name": "_index_of_auction",
          "type": "uint256"
        }
      ],
      "name": "checkmate_auction",
      "outputs": [],
      "payable": true,
      "stateMutability": "payable",
      "type": "function"
    }
  ],
  "bytecode": "0x608060405234801561001057600080fd5b50612667806100206000396000f3fe6080604052600436106100dd5760003560e01c8063a73bda5b1161007f578063cb93097e11610059578063cb93097e146107c2578063da2a2e3b14610932578063ee49c346146109b7578063f7c7c591146109fc576100dd565b8063a73bda5b14610420578063b231e6c01461059f578063be4aebf4146105ee576100dd565b8063526a5724116100bb578063526a57241461019e5780636a8658371461020357806371dbba7e146103b757806387e6dfbb146103e5576100dd565b8063019e79fe146100e2578063249791b61461010d5780634e4e655e1461013b575b600080fd5b3480156100ee57600080fd5b506100f7610a27565b6040518082815260200191505060405180910390f35b6101396004803603602081101561012357600080fd5b8101908080359060200190929190505050610a2d565b005b34801561014757600080fd5b506101886004803603606081101561015e57600080fd5b81019080803590602001909291908035906020019092919080359060200190929190505050610abc565b6040518082815260200191505060405180910390f35b3480156101aa57600080fd5b506101ed600480360360208110156101c157600080fd5b81019080803573ffffffffffffffffffffffffffffffffffffffff169060200190929190505050610ff9565b6040518082815260200191505060405180910390f35b34801561020f57600080fd5b5061023c6004803603602081101561022657600080fd5b8101908080359060200190929190505050611011565b604051808b81526020018a73ffffffffffffffffffffffffffffffffffffffff1673ffffffffffffffffffffffffffffffffffffffff1681526020018981526020018881526020018773ffffffffffffffffffffffffffffffffffffffff1673ffffffffffffffffffffffffffffffffffffffff168152602001861515151581526020018581526020018481526020018060200180602001838103835285818151815260200191508051906020019080838360005b8381101561030c5780820151818401526020810190506102f1565b50505050905090810190601f1680156103395780820380516001836020036101000a031916815260200191505b50838103825284818151815260200191508051906020019080838360005b83811015610372578082015181840152602081019050610357565b50505050905090810190601f16801561039f5780820380516001836020036101000a031916815260200191505b509c5050505050505050505050505060405180910390f35b6103e3600480360360208110156103cd57600080fd5b81019080803590602001909291905050506111e2565b005b3480156103f157600080fd5b5061041e6004803603602081101561040857600080fd5b8101908080359060200190929190505050611592565b005b34801561042c57600080fd5b5061059d6004803603606081101561044357600080fd5b81019080803573ffffffffffffffffffffffffffffffffffffffff1690602001909291908035906020019064010000000081111561048057600080fd5b82018360208201111561049257600080fd5b803590602001918460018302840111640100000000831117156104b457600080fd5b91908080601f016020809104026020016040519081016040528093929190818152602001838380828437600081840152601f19601f8201169050808301925050505050505091929192908035906020019064010000000081111561051757600080fd5b82018360208201111561052957600080fd5b8035906020019184600183028401116401000000008311171561054b57600080fd5b91908080601f016020809104026020016040519081016040528093929190818152602001838380828437600081840152601f19601f8201169050808301925050505050505091929192905050506116b7565b005b3480156105ab57600080fd5b506105d8600480360360208110156105c257600080fd5b8101908080359060200190929190505050611897565b6040518082815260200191505060405180910390f35b3480156105fa57600080fd5b506106476004803603604081101561061157600080fd5b81019080803573ffffffffffffffffffffffffffffffffffffffff169060200190929190803590602001909291905050506118af565b604051808b81526020018a73ffffffffffffffffffffffffffffffffffffffff1673ffffffffffffffffffffffffffffffffffffffff1681526020018981526020018881526020018773ffffffffffffffffffffffffffffffffffffffff1673ffffffffffffffffffffffffffffffffffffffff168152602001861515151581526020018581526020018481526020018060200180602001838103835285818151815260200191508051906020019080838360005b838110156107175780820151818401526020810190506106fc565b50505050905090810190601f1680156107445780820380516001836020036101000a031916815260200191505b50838103825284818151815260200191508051906020019080838360005b8381101561077d578082015181840152602081019050610762565b50505050905090810190601f1680156107aa5780820380516001836020036101000a031916815260200191505b509c5050505050505050505050505060405180910390f35b3480156107ce57600080fd5b506107fb600480360360208110156107e557600080fd5b8101908080359060200190929190505050611a9a565b604051808781526020018673ffffffffffffffffffffffffffffffffffffffff1673ffffffffffffffffffffffffffffffffffffffff16815260200185151515158152602001841515151581526020018060200180602001838103835285818151815260200191508051906020019080838360005b8381101561088b578082015181840152602081019050610870565b50505050905090810190601f1680156108b85780820380516001836020036101000a031916815260200191505b50838103825284818151815260200191508051906020019080838360005b838110156108f15780820151818401526020810190506108d6565b50505050905090810190601f16801561091e5780820380516001836020036101000a031916815260200191505b509850505050505050505060405180910390f35b34801561093e57600080fd5b506109756004803603604081101561095557600080fd5b810190808035906020019092919080359060200190929190505050611c40565b604051808273ffffffffffffffffffffffffffffffffffffffff1673ffffffffffffffffffffffffffffffffffffffff16815260200191505060405180910390f35b3480156109c357600080fd5b506109fa600480360360408110156109da57600080fd5b810190808035906020019092919080359060200190929190505050611c8b565b005b348015610a0857600080fd5b50610a1161242f565b6040518082815260200191505060405180910390f35b60025481565b6003600082815260200190815260200160002060030154341015610ab9576040517f08c379a000000000000000000000000000000000000000000000000000000000815260040180806020018281038252600e8152602001807f73686f7274206f66206d6f6e657900000000000000000000000000000000000081525060200191505060405180910390fd5b50565b6000610ac6612435565b60405180610140016040528060025481526020013373ffffffffffffffffffffffffffffffffffffffff168152602001868152602001600081526020013373ffffffffffffffffffffffffffffffffffffffff168152602001600015158152602001858152602001848152602001600160008681526020019081526020016000206002018054600181600116156101000203166002900480601f016020809104026020016040519081016040528092919081815260200182805460018160011615610100020316600290048015610bde5780601f10610bb357610100808354040283529160200191610bde565b820191906000526020600020905b815481529060010190602001808311610bc157829003601f168201915b50505050508152602001600160008681526020019081526020016000206003018054600181600116156101000203166002900480601f016020809104026020016040519081016040528092919081815260200182805460018160011615610100020316600290048015610c925780601f10610c6757610100808354040283529160200191610c92565b820191906000526020600020905b815481529060010190602001808311610c7557829003601f168201915b50505050508152509050806003600060025481526020019081526020016000206000820151816000015560208201518160010160006101000a81548173ffffffffffffffffffffffffffffffffffffffff021916908373ffffffffffffffffffffffffffffffffffffffff160217905550604082015181600201556060820151816003015560808201518160040160006101000a81548173ffffffffffffffffffffffffffffffffffffffff021916908373ffffffffffffffffffffffffffffffffffffffff16021790555060a08201518160040160146101000a81548160ff02191690831515021790555060c0820151816005015560e08201518160060155610100820151816007019080519060200190610daf9291906124b6565b50610120820151816008019080519060200190610dcd9291906124b6565b50905050600260008154809291906001019190505550600180600085815260200190815260200160002060010160146101000a81548160ff0219169083151502179055506001600660003373ffffffffffffffffffffffffffffffffffffffff1673ffffffffffffffffffffffffffffffffffffffff16815260200190815260200160002060008282540192505081905550600760003373ffffffffffffffffffffffffffffffffffffffff1673ffffffffffffffffffffffffffffffffffffffff16815260200190815260200160002081908060018154018082558091505090600182039060005260206000209060090201600090919290919091506000820151816000015560208201518160010160006101000a81548173ffffffffffffffffffffffffffffffffffffffff021916908373ffffffffffffffffffffffffffffffffffffffff160217905550604082015181600201556060820151816003015560808201518160040160006101000a81548173ffffffffffffffffffffffffffffffffffffffff021916908373ffffffffffffffffffffffffffffffffffffffff16021790555060a08201518160040160146101000a81548160ff02191690831515021790555060c0820151816005015560e08201518160060155610100820151816007019080519060200190610fc79291906124b6565b50610120820151816008019080519060200190610fe59291906124b6565b505050506001600254039150509392505050565b60066020528060005260406000206000915090505481565b60036020528060005260406000206000915090508060000154908060010160009054906101000a900473ffffffffffffffffffffffffffffffffffffffff16908060020154908060030154908060040160009054906101000a900473ffffffffffffffffffffffffffffffffffffffff16908060040160149054906101000a900460ff1690806005015490806006015490806007018054600181600116156101000203166002900480601f01602080910402602001604051908101604052809291908181526020018280546001816001161561010002031660029004801561113a5780601f1061110f5761010080835404028352916020019161113a565b820191906000526020600020905b81548152906001019060200180831161111d57829003601f168201915b505050505090806008018054600181600116156101000203166002900480601f0160208091040260200160405190810160405280929190818152602001828054600181600116156101000203166002900480156111d85780601f106111ad576101008083540402835291602001916111d8565b820191906000526020600020905b8154815290600101906020018083116111bb57829003601f168201915b505050505090508a565b60006003600083815260200190815260200160002090506000600160008360060154815260200190815260200160002090506003600084815260200190815260200160002060010160009054906101000a900473ffffffffffffffffffffffffffffffffffffffff1673ffffffffffffffffffffffffffffffffffffffff166108fc670de0b6b3a76400006003600087815260200190815260200160002060030154029081150290604051600060405180830381858888f193505050501580156112b0573d6000803e3d6000fd5b50338160010160006101000a81548173ffffffffffffffffffffffffffffffffffffffff021916908373ffffffffffffffffffffffffffffffffffffffff16021790555060008160010160146101000a81548160ff0219169083151502179055506003600084815260200190815260200160002060010160009054906101000a900473ffffffffffffffffffffffffffffffffffffffff1673ffffffffffffffffffffffffffffffffffffffff163373ffffffffffffffffffffffffffffffffffffffff16146113985760018160010160156101000a81548160ff0219169083151502179055505b60018260040160146101000a81548160ff02191690831515021790555060008090505b600660003373ffffffffffffffffffffffffffffffffffffffff1673ffffffffffffffffffffffffffffffffffffffff168152602001908152602001600020548110156114eb5783600760003373ffffffffffffffffffffffffffffffffffffffff1673ffffffffffffffffffffffffffffffffffffffff168152602001908152602001600020828154811061144d57fe5b90600052602060002090600902016000015414156114de576001600760003373ffffffffffffffffffffffffffffffffffffffff1673ffffffffffffffffffffffffffffffffffffffff16815260200190815260200160002082815481106114b157fe5b906000526020600020906009020160040160146101000a81548160ff0219169083151502179055506114eb565b80806001019150506113bb565b50600160046000846006015481526020019081526020016000206000828254019250508190555060056000836006015481526020019081526020016000203390806001815401808255809150509060018203906000526020600020016000909192909190916101000a81548173ffffffffffffffffffffffffffffffffffffffff021916908373ffffffffffffffffffffffffffffffffffffffff16021790555050505050565b6003600082815260200190815260200160002060050154421161161d576040517f08c379a00000000000000000000000000000000000000000000000000000000081526004018080602001828103825260108152602001807f74696d65206973206e6f74206f7665720000000000000000000000000000000081525060200191505060405180910390fd5b6003600082815260200190815260200160002060040160149054906101000a900460ff16156116b4576040517f08c379a00000000000000000000000000000000000000000000000000000000081526004018080602001828103825260168152602001807f61756374696f6e2068617320636865636b6d617465640000000000000000000081525060200191505060405180910390fd5b50565b6116bf612536565b6040518060c0016040528060005481526020018573ffffffffffffffffffffffffffffffffffffffff1681526020016000151581526020016000151581526020018381526020018481525090508060016000805481526020019081526020016000206000820151816000015560208201518160010160006101000a81548173ffffffffffffffffffffffffffffffffffffffff021916908373ffffffffffffffffffffffffffffffffffffffff16021790555060408201518160010160146101000a81548160ff02191690831515021790555060608201518160010160156101000a81548160ff02191690831515021790555060808201518160020190805190602001906117ce9291906124b6565b5060a08201518160030190805190602001906117eb9291906124b6565b50905050600160046000805481526020019081526020016000208190555060056000805481526020019081526020016000208490806001815401808255809150509060018203906000526020600020016000909192909190916101000a81548173ffffffffffffffffffffffffffffffffffffffff021916908373ffffffffffffffffffffffffffffffffffffffff160217905550506001600080828254019250508190555050505050565b60046020528060005260406000206000915090505481565b600760205281600052604060002081815481106118c857fe5b9060005260206000209060090201600091509150508060000154908060010160009054906101000a900473ffffffffffffffffffffffffffffffffffffffff16908060020154908060030154908060040160009054906101000a900473ffffffffffffffffffffffffffffffffffffffff16908060040160149054906101000a900460ff1690806005015490806006015490806007018054600181600116156101000203166002900480601f0160208091040260200160405190810160405280929190818152602001828054600181600116156101000203166002900480156119f25780601f106119c7576101008083540402835291602001916119f2565b820191906000526020600020905b8154815290600101906020018083116119d557829003601f168201915b505050505090806008018054600181600116156101000203166002900480601f016020809104026020016040519081016040528092919081815260200182805460018160011615610100020316600290048015611a905780601f10611a6557610100808354040283529160200191611a90565b820191906000526020600020905b815481529060010190602001808311611a7357829003601f168201915b505050505090508a565b60016020528060005260406000206000915090508060000154908060010160009054906101000a900473ffffffffffffffffffffffffffffffffffffffff16908060010160149054906101000a900460ff16908060010160159054906101000a900460ff1690806002018054600181600116156101000203166002900480601f016020809104026020016040519081016040528092919081815260200182805460018160011615610100020316600290048015611b985780601f10611b6d57610100808354040283529160200191611b98565b820191906000526020600020905b815481529060010190602001808311611b7b57829003601f168201915b505050505090806003018054600181600116156101000203166002900480601f016020809104026020016040519081016040528092919081815260200182805460018160011615610100020316600290048015611c365780601f10611c0b57610100808354040283529160200191611c36565b820191906000526020600020905b815481529060010190602001808311611c1957829003601f168201915b5050505050905086565b60056020528160005260406000208181548110611c5957fe5b906000526020600020016000915091509054906101000a900473ffffffffffffffffffffffffffffffffffffffff1681565b3373ffffffffffffffffffffffffffffffffffffffff166003600084815260200190815260200160002060010160009054906101000a900473ffffffffffffffffffffffffffffffffffffffff1673ffffffffffffffffffffffffffffffffffffffff161415611d63576040517f08c379a00000000000000000000000000000000000000000000000000000000081526004018080602001828103825260098152602001807f6e6f206d7973656c66000000000000000000000000000000000000000000000081525060200191505060405180910390fd5b60006003600084815260200190815260200160002090506000816003015414611fd45760008090505b600660008360040160009054906101000a900473ffffffffffffffffffffffffffffffffffffffff1673ffffffffffffffffffffffffffffffffffffffff1673ffffffffffffffffffffffffffffffffffffffff16815260200190815260200160002054811015611fd25783600760008460040160009054906101000a900473ffffffffffffffffffffffffffffffffffffffff1673ffffffffffffffffffffffffffffffffffffffff1673ffffffffffffffffffffffffffffffffffffffff1681526020019081526020016000208281548110611e6657fe5b9060005260206000209060090201600001541415611fc55733600760008460040160009054906101000a900473ffffffffffffffffffffffffffffffffffffffff1673ffffffffffffffffffffffffffffffffffffffff1673ffffffffffffffffffffffffffffffffffffffff1681526020019081526020016000208281548110611eed57fe5b906000526020600020906009020160040160006101000a81548173ffffffffffffffffffffffffffffffffffffffff021916908373ffffffffffffffffffffffffffffffffffffffff16021790555082600760008460040160009054906101000a900473ffffffffffffffffffffffffffffffffffffffff1673ffffffffffffffffffffffffffffffffffffffff1673ffffffffffffffffffffffffffffffffffffffff1681526020019081526020016000208281548110611fab57fe5b906000526020600020906009020160030181905550611fd2565b8080600101915050611d8c565b505b338160040160006101000a81548173ffffffffffffffffffffffffffffffffffffffff021916908373ffffffffffffffffffffffffffffffffffffffff160217905550818160030181905550600080905060008090505b600660003373ffffffffffffffffffffffffffffffffffffffff1673ffffffffffffffffffffffffffffffffffffffff168152602001908152602001600020548110156121e55784600760003373ffffffffffffffffffffffffffffffffffffffff1673ffffffffffffffffffffffffffffffffffffffff16815260200190815260200160002082815481106120bd57fe5b90600052602060002090600902016000015414156121d8576001915033600760003373ffffffffffffffffffffffffffffffffffffffff1673ffffffffffffffffffffffffffffffffffffffff168152602001908152602001600020828154811061212457fe5b906000526020600020906009020160040160006101000a81548173ffffffffffffffffffffffffffffffffffffffff021916908373ffffffffffffffffffffffffffffffffffffffff16021790555083600760003373ffffffffffffffffffffffffffffffffffffffff1673ffffffffffffffffffffffffffffffffffffffff16815260200190815260200160002082815481106121be57fe5b9060005260206000209060090201600301819055506121e5565b808060010191505061202b565b506000811415612429576001600660003373ffffffffffffffffffffffffffffffffffffffff1673ffffffffffffffffffffffffffffffffffffffff16815260200190815260200160002060008282540192505081905550600760003373ffffffffffffffffffffffffffffffffffffffff1673ffffffffffffffffffffffffffffffffffffffff1681526020019081526020016000208290806001815401808255809150509060018203906000526020600020906009020160009091929091909150600082015481600001556001820160009054906101000a900473ffffffffffffffffffffffffffffffffffffffff168160010160006101000a81548173ffffffffffffffffffffffffffffffffffffffff021916908373ffffffffffffffffffffffffffffffffffffffff16021790555060028201548160020155600382015481600301556004820160009054906101000a900473ffffffffffffffffffffffffffffffffffffffff168160040160006101000a81548173ffffffffffffffffffffffffffffffffffffffff021916908373ffffffffffffffffffffffffffffffffffffffff1602179055506004820160149054906101000a900460ff168160040160146101000a81548160ff0219169083151502179055506005820154816005015560068201548160060155600782018160070190805460018160011615610100020316600290046123fc929190612586565b5060088201816008019080546001816001161561010002031660029004612424929190612586565b505050505b50505050565b60005481565b60405180610140016040528060008152602001600073ffffffffffffffffffffffffffffffffffffffff1681526020016000815260200160008152602001600073ffffffffffffffffffffffffffffffffffffffff168152602001600015158152602001600081526020016000815260200160608152602001606081525090565b828054600181600116156101000203166002900490600052602060002090601f016020900481019282601f106124f757805160ff1916838001178555612525565b82800160010185558215612525579182015b82811115612524578251825591602001919060010190612509565b5b509050612532919061260d565b5090565b6040518060c0016040528060008152602001600073ffffffffffffffffffffffffffffffffffffffff16815260200160001515815260200160001515815260200160608152602001606081525090565b828054600181600116156101000203166002900490600052602060002090601f016020900481019282601f106125bf57805485556125fc565b828001600101855582156125fc57600052602060002091601f016020900482015b828111156125fb5782548255916001019190600101906125e0565b5b509050612609919061260d565b5090565b61262f91905b8082111561262b576000816000905550600101612613565b5090565b9056fea265627a7a72315820644969509a4631cdf8a3aabe18a0a0143d7e5a85dbf8a89bfc659037cc5b33a764736f6c63430005100032",
  "source": "pragma solidity ^0.5.16;\r\n\r\ncontract bid{\r\n    //nft\r\n    uint public nft_num;\r\n    //nft=>nft\r\n    mapping(uint=>single_nft) public all_nft;\r\n\r\n    //\r\n    uint public auction_num;\r\n    //=>\r\n    mapping(uint=>single_auction) public all_auction;\r\n\r\n    mapping(uint=>uint) public num_of_belongers;\r\n    mapping(uint=>address[]) public past_belongers;\r\n\r\n    mapping(address=>uint) public evolve_num;\r\n    mapping(address=>single_auction[]) public my_evolve;\r\n\r\n    struct single_nft{\r\n        uint index;\r\n        address owner;\r\n        bool under_auction_or_not;\r\n        bool own_or_buy;    //own:0;buy:1\r\n        string nft_name;\r\n        string nft_hash;\r\n        \r\n    }\r\n\r\n    struct single_auction{\r\n        uint index;\r\n        address payable beneficiary;\r\n        uint basebid;\r\n        uint highestbid;\r\n        address payable highest_bidder;\r\n        bool end_or_not;\r\n        uint endtime; \r\n        uint index_of_nft;\r\n        string nft_name;\r\n        string nft_hash;\r\n    }\r\n\r\n    function addnewnft(address _owner, string memory _nft_hash, string memory _nft_name) public{\r\n        single_nft memory new_nft = single_nft(nft_num, _owner, false, false, _nft_name, _nft_hash);\r\n        all_nft[nft_num] = new_nft;\r\n        num_of_belongers[nft_num] = 1;\r\n        past_belongers[nft_num].push(_owner);\r\n        nft_num += 1;\r\n    }\r\n\r\n    //msg.sender\r\n    function addnewauction(uint _basebid, uint ddl, uint _index_of_nft) public returns (uint){\r\n        single_auction memory new_auction = single_auction(auction_num, msg.sender, _basebid, 0, msg.sender, false, ddl, _index_of_nft, all_nft[_index_of_nft].nft_name, all_nft[_index_of_nft].nft_hash);\r\n        all_auction[auction_num] = new_auction;\r\n        auction_num++;\r\n        all_nft[_index_of_nft].under_auction_or_not = true;\r\n\r\n        //evolve\r\n        evolve_num[msg.sender] += 1;\r\n        my_evolve[msg.sender].push(new_auction);\r\n\r\n        return auction_num - 1;\r\n    }\r\n\r\n    //msg.sender\r\n    function addnewbid(uint _index_of_auction, uint _new_price) public{\r\n        require(all_auction[_index_of_auction].beneficiary != msg.sender, 'no myself');\r\n        \r\n        single_auction storage cur_auction = all_auction[_index_of_auction];\r\n\r\n        if (cur_auction.highestbid != 0){\r\n            //\r\n            for (uint i=0;i<evolve_num[cur_auction.highest_bidder];i++){\r\n                if (my_evolve[cur_auction.highest_bidder][i].index == _index_of_auction){  //\r\n                    my_evolve[cur_auction.highest_bidder][i].highest_bidder = msg.sender;\r\n                    my_evolve[cur_auction.highest_bidder][i].highestbid = _new_price;\r\n                    break;\r\n                }\r\n            }\r\n        }\r\n\r\n        //\r\n        cur_auction.highest_bidder = msg.sender;\r\n        cur_auction.highestbid = _new_price;\r\n        //\r\n\r\n        //evolve\r\n        uint flag = 0;\r\n        for (uint j=0;j<evolve_num[msg.sender];j++){\r\n            if (my_evolve[msg.sender][j].index == _index_of_auction ){\r\n                flag = 1;\r\n                my_evolve[msg.sender][j].highest_bidder = msg.sender;\r\n                my_evolve[msg.sender][j].highestbid = _new_price;\r\n                break;\r\n            }\r\n        }\r\n\r\n        if (flag == 0){\r\n            evolve_num[msg.sender] += 1;\r\n            my_evolve[msg.sender].push(cur_auction);\r\n        }\r\n\r\n\r\n    }\r\n\r\n    //\r\n    function finish_auction(uint _index_of_auction) view public{\r\n        require(block.timestamp > all_auction[_index_of_auction].endtime, 'time is not over');\r\n        require(!all_auction[_index_of_auction].end_or_not, 'auction has checkmated');\r\n        // if (all_auction[_index_of_auction].highestbid == 0){\r\n        //     return false;   //\r\n        // }\r\n        // else{\r\n        //     return true;\r\n        // }\r\n    }\r\n\r\n\r\n    //, msg.valuevalue\r\n    function pay_for_auction(uint _index_of_auction) public payable{\r\n        require(msg.value >= all_auction[_index_of_auction].highestbid, 'short of money');\r\n\r\n    }\r\n\r\n\r\n    //, msg.sender\r\n    function checkmate_auction(uint _index_of_auction) public payable{\r\n        single_auction storage fin_auction = all_auction[_index_of_auction];\r\n        single_nft storage change_nft = all_nft[fin_auction.index_of_nft];\r\n\r\n        all_auction[_index_of_auction].beneficiary.transfer(all_auction[_index_of_auction].highestbid * 1 ether);\r\n        //nft\r\n        change_nft.owner = msg.sender;\r\n        change_nft.under_auction_or_not = false;\r\n        if (msg.sender != all_auction[_index_of_auction].beneficiary){   //nft\r\n            change_nft.own_or_buy = true;\r\n        }\r\n        //auction\r\n        fin_auction.end_or_not = true;\r\n        for (uint i=0;i<evolve_num[msg.sender];i++){\r\n            if (my_evolve[msg.sender][i].index == _index_of_auction){\r\n                my_evolve[msg.sender][i].end_or_not = true;\r\n                break;\r\n            }\r\n        }\r\n\r\n        //\r\n        num_of_belongers[fin_auction.index_of_nft] += 1;\r\n        past_belongers[fin_auction.index_of_nft].push(msg.sender);\r\n\r\n    }\r\n\r\n\r\n\r\n}",
  "sourcePath": "E:\\ethernum\\final-hw\\finalbigwork\\contracts\\bid.sol",
  "compiler": {
    "name": "solc",
    "version": "0.5.16+commit.9c3226ce.Emscripten.clang"
  },
  "schemaVersion": "3.4.3",
  "updatedAt": "2021-10-29T03:04:19.285Z",
  "devdoc": {
    "methods": {}
  },
  "userdoc": {
    "methods": {}
  }
}